{
  "contractName": "CarPooling",
  "abi": [
    {
      "anonymous": false,
      "inputs": [
        {
          "indexed": false,
          "internalType": "uint256",
          "name": "bookingId",
          "type": "uint256"
        },
        {
          "indexed": false,
          "internalType": "address",
          "name": "cancelledBy",
          "type": "address"
        },
        {
          "indexed": false,
          "internalType": "uint256",
          "name": "penalty",
          "type": "uint256"
        }
      ],
      "name": "BookingCancelled",
      "type": "event"
    },
    {
      "anonymous": false,
      "inputs": [
        {
          "indexed": false,
          "internalType": "uint256",
          "name": "bookingId",
          "type": "uint256"
        },
        {
          "indexed": false,
          "internalType": "uint256",
          "name": "rideId",
          "type": "uint256"
        },
        {
          "indexed": false,
          "internalType": "address",
          "name": "passenger",
          "type": "address"
        },
        {
          "indexed": false,
          "internalType": "uint256",
          "name": "amount",
          "type": "uint256"
        }
      ],
      "name": "RideBooked",
      "type": "event"
    },
    {
      "anonymous": false,
      "inputs": [
        {
          "indexed": false,
          "internalType": "uint256",
          "name": "rideId",
          "type": "uint256"
        },
        {
          "indexed": false,
          "internalType": "address",
          "name": "driver",
          "type": "address"
        },
        {
          "indexed": false,
          "internalType": "string",
          "name": "source",
          "type": "string"
        },
        {
          "indexed": false,
          "internalType": "string",
          "name": "destination",
          "type": "string"
        }
      ],
      "name": "RideCreated",
      "type": "event"
    },
    {
      "inputs": [],
      "name": "bookingCount",
      "outputs": [
        {
          "internalType": "uint256",
          "name": "",
          "type": "uint256"
        }
      ],
      "stateMutability": "view",
      "type": "function",
      "constant": true
    },
    {
      "inputs": [
        {
          "internalType": "uint256",
          "name": "",
          "type": "uint256"
        }
      ],
      "name": "bookings",
      "outputs": [
        {
          "internalType": "uint256",
          "name": "bookingId",
          "type": "uint256"
        },
        {
          "internalType": "uint256",
          "name": "rideId",
          "type": "uint256"
        },
        {
          "internalType": "address",
          "name": "passenger",
          "type": "address"
        },
        {
          "internalType": "uint256",
          "name": "seatsBooked",
          "type": "uint256"
        },
        {
          "internalType": "uint256",
          "name": "amount",
          "type": "uint256"
        },
        {
          "internalType": "uint256",
          "name": "timestamp",
          "type": "uint256"
        }
      ],
      "stateMutability": "view",
      "type": "function",
      "constant": true
    },
    {
      "inputs": [],
      "name": "cancellationCount",
      "outputs": [
        {
          "internalType": "uint256",
          "name": "",
          "type": "uint256"
        }
      ],
      "stateMutability": "view",
      "type": "function",
      "constant": true
    },
    {
      "inputs": [
        {
          "internalType": "uint256",
          "name": "",
          "type": "uint256"
        }
      ],
      "name": "cancellations",
      "outputs": [
        {
          "internalType": "uint256",
          "name": "bookingId",
          "type": "uint256"
        },
        {
          "internalType": "address",
          "name": "cancelledBy",
          "type": "address"
        },
        {
          "internalType": "string",
          "name": "reason",
          "type": "string"
        },
        {
          "internalType": "uint256",
          "name": "penalty",
          "type": "uint256"
        },
        {
          "internalType": "uint256",
          "name": "timestamp",
          "type": "uint256"
        }
      ],
      "stateMutability": "view",
      "type": "function",
      "constant": true
    },
    {
      "inputs": [],
      "name": "rideCount",
      "outputs": [
        {
          "internalType": "uint256",
          "name": "",
          "type": "uint256"
        }
      ],
      "stateMutability": "view",
      "type": "function",
      "constant": true
    },
    {
      "inputs": [
        {
          "internalType": "uint256",
          "name": "",
          "type": "uint256"
        }
      ],
      "name": "rides",
      "outputs": [
        {
          "internalType": "uint256",
          "name": "rideId",
          "type": "uint256"
        },
        {
          "internalType": "address",
          "name": "driver",
          "type": "address"
        },
        {
          "internalType": "string",
          "name": "source",
          "type": "string"
        },
        {
          "internalType": "string",
          "name": "destination",
          "type": "string"
        },
        {
          "internalType": "uint256",
          "name": "seats",
          "type": "uint256"
        },
        {
          "internalType": "uint256",
          "name": "pricePerSeat",
          "type": "uint256"
        },
        {
          "internalType": "uint256",
          "name": "timestamp",
          "type": "uint256"
        }
      ],
      "stateMutability": "view",
      "type": "function",
      "constant": true
    },
    {
      "inputs": [
        {
          "internalType": "uint256",
          "name": "_rideId",
          "type": "uint256"
        },
        {
          "internalType": "string",
          "name": "_source",
          "type": "string"
        },
        {
          "internalType": "string",
          "name": "_destination",
          "type": "string"
        },
        {
          "internalType": "uint256",
          "name": "_seats",
          "type": "uint256"
        },
        {
          "internalType": "uint256",
          "name": "_pricePerSeat",
          "type": "uint256"
        }
      ],
      "name": "createRide",
      "outputs": [],
      "stateMutability": "nonpayable",
      "type": "function"
    },
    {
      "inputs": [
        {
          "internalType": "uint256",
          "name": "_bookingId",
          "type": "uint256"
        },
        {
          "internalType": "uint256",
          "name": "_rideId",
          "type": "uint256"
        },
        {
          "internalType": "uint256",
          "name": "_seatsBooked",
          "type": "uint256"
        },
        {
          "internalType": "uint256",
          "name": "_amount",
          "type": "uint256"
        }
      ],
      "name": "bookRide",
      "outputs": [],
      "stateMutability": "nonpayable",
      "type": "function"
    },
    {
      "inputs": [
        {
          "internalType": "uint256",
          "name": "_bookingId",
          "type": "uint256"
        },
        {
          "internalType": "string",
          "name": "_reason",
          "type": "string"
        },
        {
          "internalType": "uint256",
          "name": "_penalty",
          "type": "uint256"
        }
      ],
      "name": "cancelBooking",
      "outputs": [],
      "stateMutability": "nonpayable",
      "type": "function"
    },
    {
      "inputs": [
        {
          "internalType": "uint256",
          "name": "_rideId",
          "type": "uint256"
        }
      ],
      "name": "getRide",
      "outputs": [
        {
          "internalType": "uint256",
          "name": "rideId",
          "type": "uint256"
        },
        {
          "internalType": "address",
          "name": "driver",
          "type": "address"
        },
        {
          "internalType": "string",
          "name": "source",
          "type": "string"
        },
        {
          "internalType": "string",
          "name": "destination",
          "type": "string"
        },
        {
          "internalType": "uint256",
          "name": "seats",
          "type": "uint256"
        },
        {
          "internalType": "uint256",
          "name": "pricePerSeat",
          "type": "uint256"
        },
        {
          "internalType": "uint256",
          "name": "timestamp",
          "type": "uint256"
        }
      ],
      "stateMutability": "view",
      "type": "function",
      "constant": true
    },
    {
      "inputs": [
        {
          "internalType": "uint256",
          "name": "_bookingId",
          "type": "uint256"
        }
      ],
      "name": "getBooking",
      "outputs": [
        {
          "internalType": "uint256",
          "name": "bookingId",
          "type": "uint256"
        },
        {
          "internalType": "uint256",
          "name": "rideId",
          "type": "uint256"
        },
        {
          "internalType": "address",
          "name": "passenger",
          "type": "address"
        },
        {
          "internalType": "uint256",
          "name": "seatsBooked",
          "type": "uint256"
        },
        {
          "internalType": "uint256",
          "name": "amount",
          "type": "uint256"
        },
        {
          "internalType": "uint256",
          "name": "timestamp",
          "type": "uint256"
        }
      ],
      "stateMutability": "view",
      "type": "function",
      "constant": true
    }
  ],
  "bytecode": "0x608060405260006003556000600455600060055534801561001f57600080fd5b50610db78061002f6000396000f3fe608060405234801561001057600080fd5b50600436106100a95760003560e01c80636d759172116100715780636d759172146102035780637a8afa931461021a5780637c7b0ff4146102235780638755408614610236578063b47c18831461025a578063b9dc7d7c1461026357600080fd5b8063137b6495146100ae5780631dab301e146100c35780634d9c4503146101515780635205f112146101645780636a5c841a1461018a575b600080fd5b6100c16100bc3660046109d0565b610276565b005b6101116100d1366004610a4f565b600160208190526000918252604090912080549181015460028201546003830154600484015460059094015492936001600160a01b039092169290919086565b6040805196875260208701959095526001600160a01b03909316938501939093526060840152608083019190915260a082015260c0015b60405180910390f35b6100c161015f366004610a68565b610384565b610177610172366004610a4f565b610467565b6040516101489796959493929190610afe565b610111610198366004610a4f565b600090815260016020818152604092839020835160c08101855281548082529382015492810183905260028201546001600160a01b031694810185905260038201546060820181905260048301546080830181905260059093015460a0909201829052939592949392565b61020c60045481565b604051908152602001610148565b61020c60055481565b610177610231366004610a4f565b6105bc565b610249610244366004610a4f565b610782565b604051610148959493929190610b5a565b61020c60035481565b6100c1610271366004610b98565b610844565b6003805490600061028683610bca565b90915550506040805160e081018252868152336020808301918252828401888152606084018890526080840187905260a084018690524260c085015260008a8152918290529390208251815590516001820180546001600160a01b0319166001600160a01b03909216919091179055915190919060028201906103099082610c7a565b506060820151600382019061031e9082610c7a565b506080820151816004015560a0820151816005015560c082015181600601559050507f03d6a4a616edd5311142f277edbf62ba24531b2c1afce3ad707101d09ee6d5eb853386866040516103759493929190610d3a565b60405180910390a15050505050565b6005805490600061039483610bca565b90915550506040805160a081018252848152336020808301918252828401868152606084018690524260808501526000888152600292839052949094208351815591516001830180546001600160a01b0319166001600160a01b039092169190911790559251919290919082019061040c9082610c7a565b506060828101516003830155608090920151600490910155604080518581523360208201529081018390527f1b6cb622ce03beaf3e0c44cb4253af7c70bb84b7e3711229b33cc2ec4c613c8e910160405180910390a1505050565b60006020819052908152604090208054600182015460028301805492936001600160a01b039092169261049990610bf1565b80601f01602080910402602001604051908101604052809291908181526020018280546104c590610bf1565b80156105125780601f106104e757610100808354040283529160200191610512565b820191906000526020600020905b8154815290600101906020018083116104f557829003601f168201915b50505050509080600301805461052790610bf1565b80601f016020809104026020016040519081016040528092919081815260200182805461055390610bf1565b80156105a05780601f10610575576101008083540402835291602001916105a0565b820191906000526020600020905b81548152906001019060200180831161058357829003601f168201915b5050505050908060040154908060050154908060060154905087565b600081815260208181526040808320815160e0810183528154815260018201546001600160a01b0316938101939093526002810180548594606094859487948594859485949093929084019161061190610bf1565b80601f016020809104026020016040519081016040528092919081815260200182805461063d90610bf1565b801561068a5780601f1061065f5761010080835404028352916020019161068a565b820191906000526020600020905b81548152906001019060200180831161066d57829003601f168201915b505050505081526020016003820180546106a390610bf1565b80601f01602080910402602001604051908101604052809291908181526020018280546106cf90610bf1565b801561071c5780601f106106f15761010080835404028352916020019161071c565b820191906000526020600020905b8154815290600101906020018083116106ff57829003601f168201915b5050505050815260200160048201548152602001600582015481526020016006820154815250509050806000015181602001518260400151836060015184608001518560a001518660c00151975097509750975097509750975050919395979092949650565b600260208190526000918252604090912080546001820154928201805491936001600160a01b031692916107b590610bf1565b80601f01602080910402602001604051908101604052809291908181526020018280546107e190610bf1565b801561082e5780601f106108035761010080835404028352916020019161082e565b820191906000526020600020905b81548152906001019060200180831161081157829003601f168201915b5050505050908060030154908060040154905085565b6004805490600061085483610bca565b90915550506040805160c081018252858152602080820186815233838501818152606080860189815260808088018a81524260a08a0190815260008f81526001808b52908c90209a518b559751978a019790975593516002890180546001600160a01b0319166001600160a01b03909216919091179055905160038801559151600487015592516005909501949094558451898152928301889052938201939093529182018390527f501a83174fe12dbe220d3406a4fb6502e4e6ac4a6e8d42bc1491df6a26c5fd18910160405180910390a150505050565b634e487b7160e01b600052604160045260246000fd5b600082601f83011261095457600080fd5b813567ffffffffffffffff8082111561096f5761096f61092d565b604051601f8301601f19908116603f011681019082821181831017156109975761099761092d565b816040528381528660208588010111156109b057600080fd5b836020870160208301376000602085830101528094505050505092915050565b600080600080600060a086880312156109e857600080fd5b85359450602086013567ffffffffffffffff80821115610a0757600080fd5b610a1389838a01610943565b95506040880135915080821115610a2957600080fd5b50610a3688828901610943565b9598949750949560608101359550608001359392505050565b600060208284031215610a6157600080fd5b5035919050565b600080600060608486031215610a7d57600080fd5b83359250602084013567ffffffffffffffff811115610a9b57600080fd5b610aa786828701610943565b925050604084013590509250925092565b6000815180845260005b81811015610ade57602081850181015186830182015201610ac2565b506000602082860101526020601f19601f83011685010191505092915050565b8781526001600160a01b038716602082015260e060408201819052600090610b2890830188610ab8565b8281036060840152610b3a8188610ab8565b6080840196909652505060a081019290925260c090910152949350505050565b8581526001600160a01b038516602082015260a060408201819052600090610b8490830186610ab8565b606083019490945250608001529392505050565b60008060008060808587031215610bae57600080fd5b5050823594602084013594506040840135936060013592509050565b600060018201610bea57634e487b7160e01b600052601160045260246000fd5b5060010190565b600181811c90821680610c0557607f821691505b602082108103610c2557634e487b7160e01b600052602260045260246000fd5b50919050565b601f821115610c7557600081815260208120601f850160051c81016020861015610c525750805b601f850160051c820191505b81811015610c7157828155600101610c5e565b5050505b505050565b815167ffffffffffffffff811115610c9457610c9461092d565b610ca881610ca28454610bf1565b84610c2b565b602080601f831160018114610cdd5760008415610cc55750858301515b600019600386901b1c1916600185901b178555610c71565b600085815260208120601f198616915b82811015610d0c57888601518255948401946001909101908401610ced565b5085821015610d2a5787850151600019600388901b60f8161c191681555b5050505050600190811b01905550565b8481526001600160a01b0384166020820152608060408201819052600090610d6490830185610ab8565b8281036060840152610d768185610ab8565b97965050505050505056fea2646970667358221220346d69de1af5d9fa0483a96255fefc954d901c192e995500bbb6cc1417777a0f64736f6c63430008130033",
  "immutableReferences": {},
  "source": "// SPDX-License-Identifier: MIT\r\npragma solidity ^0.8.19;\r\n\r\ncontract CarPooling {\r\n    \r\n    // Structure to store Ride information\r\n    struct RideRecord {\r\n        uint256 rideId;           // Ride ID from database\r\n        address driver;           // Blockchain address of driver\r\n        string source;            // Starting location\r\n        string destination;       // Ending location\r\n        uint256 seats;            // Number of seats\r\n        uint256 pricePerSeat;     // Price per seat\r\n        uint256 timestamp;        // When ride was created\r\n    }\r\n    \r\n    // Structure to store Booking information\r\n    struct BookingRecord {\r\n        uint256 bookingId;        // Booking ID from database\r\n        uint256 rideId;           // Which ride was booked\r\n        address passenger;        // Who booked\r\n        uint256 seatsBooked;      // How many seats\r\n        uint256 amount;           // Total amount paid\r\n        uint256 timestamp;        // When booking was made\r\n    }\r\n    \r\n    // Structure to store Cancellation information\r\n    struct CancellationRecord {\r\n        uint256 bookingId;        // Which booking was cancelled\r\n        address cancelledBy;      // Who cancelled\r\n        string reason;            // Why cancelled\r\n        uint256 penalty;          // Penalty amount\r\n        uint256 timestamp;        // When cancelled\r\n    }\r\n    \r\n    // Storage: mapping to store all records\r\n    mapping(uint256 => RideRecord) public rides;\r\n    mapping(uint256 => BookingRecord) public bookings;\r\n    mapping(uint256 => CancellationRecord) public cancellations;\r\n    \r\n    // Counters\r\n    uint256 public rideCount = 0;\r\n    uint256 public bookingCount = 0;\r\n    uint256 public cancellationCount = 0;\r\n    \r\n    // Events (like logs - to track what happened)\r\n    event RideCreated(uint256 rideId, address driver, string source, string destination);\r\n    event RideBooked(uint256 bookingId, uint256 rideId, address passenger, uint256 amount);\r\n    event BookingCancelled(uint256 bookingId, address cancelledBy, uint256 penalty);\r\n    \r\n    // Function 1: Record a new ride on blockchain\r\n    function createRide(\r\n        uint256 _rideId,\r\n        string memory _source,\r\n        string memory _destination,\r\n        uint256 _seats,\r\n        uint256 _pricePerSeat\r\n    ) public {\r\n        rideCount++;\r\n        rides[_rideId] = RideRecord(\r\n            _rideId,\r\n            msg.sender,              // Driver's blockchain address\r\n            _source,\r\n            _destination,\r\n            _seats,\r\n            _pricePerSeat,\r\n            block.timestamp          // Current blockchain time\r\n        );\r\n        \r\n        emit RideCreated(_rideId, msg.sender, _source, _destination);\r\n    }\r\n    \r\n    // Function 2: Record a booking on blockchain\r\n    function bookRide(\r\n        uint256 _bookingId,\r\n        uint256 _rideId,\r\n        uint256 _seatsBooked,\r\n        uint256 _amount\r\n    ) public {\r\n        bookingCount++;\r\n        bookings[_bookingId] = BookingRecord(\r\n            _bookingId,\r\n            _rideId,\r\n            msg.sender,              // Passenger's blockchain address\r\n            _seatsBooked,\r\n            _amount,\r\n            block.timestamp\r\n        );\r\n        \r\n        emit RideBooked(_bookingId, _rideId, msg.sender, _amount);\r\n    }\r\n    \r\n    // Function 3: Record a cancellation on blockchain\r\n    function cancelBooking(\r\n        uint256 _bookingId,\r\n        string memory _reason,\r\n        uint256 _penalty\r\n    ) public {\r\n        cancellationCount++;\r\n        cancellations[_bookingId] = CancellationRecord(\r\n            _bookingId,\r\n            msg.sender,              // Who cancelled\r\n            _reason,\r\n            _penalty,\r\n            block.timestamp\r\n        );\r\n        \r\n        emit BookingCancelled(_bookingId, msg.sender, _penalty);\r\n    }\r\n    \r\n    // Function 4: Get ride details by ID\r\n    function getRide(uint256 _rideId) public view returns (\r\n        uint256 rideId,\r\n        address driver,\r\n        string memory source,\r\n        string memory destination,\r\n        uint256 seats,\r\n        uint256 pricePerSeat,\r\n        uint256 timestamp\r\n    ) {\r\n        RideRecord memory ride = rides[_rideId];\r\n        return (\r\n            ride.rideId,\r\n            ride.driver,\r\n            ride.source,\r\n            ride.destination,\r\n            ride.seats,\r\n            ride.pricePerSeat,\r\n            ride.timestamp\r\n        );\r\n    }\r\n    \r\n    // Function 5: Get booking details by ID\r\n    function getBooking(uint256 _bookingId) public view returns (\r\n        uint256 bookingId,\r\n        uint256 rideId,\r\n        address passenger,\r\n        uint256 seatsBooked,\r\n        uint256 amount,\r\n        uint256 timestamp\r\n    ) {\r\n        BookingRecord memory booking = bookings[_bookingId];\r\n        return (\r\n            booking.bookingId,\r\n            booking.rideId,\r\n            booking.passenger,\r\n            booking.seatsBooked,\r\n            booking.amount,\r\n            booking.timestamp\r\n        );\r\n    }\r\n}",
  "sourcePath": "C:\\Users\\Arul selvan\\OneDrive\\Desktop\\capstone\\blockchain\\contracts\\CarPooling.sol",
  "compiler": {
    "name": "solc",
    "version": "0.8.19+commit.7dd6d404.Emscripten.clang"
  },
  "schemaVersion": "3.4.16",
  "updatedAt": "2025-10-25T04:02:10.675Z",
  "networkType": "ethereum",
  "devdoc": {
    "kind": "dev",
    "methods": {},
    "version": 1
  },
  "userdoc": {
    "kind": "user",
    "methods": {},
    "version": 1
  }
}